:100000000C9446000C9465000C9465000C946500FB
:100010000C9465000C9465000C9465000C946500CC
:100020000C9465000C9465000C9465000C946500BC
:100030000C9465000C9465000C9465000C946500AC
:100040000C9465000C9465000C9465000C9465009C
:100050000C9465000C9465000C9465000C9465008C
:100060000C9465000C9465000C9465000C9465007C
:100070000C9465000C9465000C9465000C9465006C
:100080000C9465000C9465000C94650011241FBE4F
:10009000CFEFD0E1DEBFCDBF11E0A0E0B1E0E8EBF3
:1000A000F4E000E00BBF02C007900D92A035B1074D
:1000B000D9F721E0A0E5B1E001C01D92A135B2075A
:1000C000E1F70E9403010C945A020C94000094EA98
:1000D000909374009091740097FFFCCF9EE49093EE
:1000E000730094E8909374009091740097FFFCCF94
:1000F0008093730084E8809374008091740087FF7C
:10010000FCCF84E9809374000895CF93C09150018F
:10011000CB7F8C2F0E9467008C2F84600E94670029
:10012000C09350018C2F0E9467008FEF98E10197D8
:10013000F1F700C00000CF910895CF93DF93C82F4F
:10014000909150019F70807F982B909350010E9456
:100150008500809150018F7090E1C99FE0011124CA
:100160008C2B80935001DF91CF910C9485000F93DD
:100170001F93CF938C01C0E0F801EC0FF11D80813B
:10018000811104C0CF911F910F910895909150015A
:100190009D7F9160909350010E949D00CF5FECCFB6
:1001A000909150019C7F909350010C949D00FC0114
:1001B000A281B3819C918581448121E030E001C01E
:1001C000220F4A95EAF7922369F48130D1F42FEF98
:1001D00030E792E0215030409040E1F700C000004D
:1001E0001582089581110DC02FEF30E782E0215074
:1001F00030408040E1F700C0000081E0858382E06C
:10020000089580E00895CF93DF93CDB7DEB7689768
:100210000FB6F894DEBF0FBECDBF4AE350E08AB3FD
:1002200087608ABB1BBA5C8B4B8B29E330E03E8B2B
:100230002D8B84E08F8B81E0888FD4985E874D87EB
:10024000388B2F8795E0998B8A8BD59858874F8369
:100250003A87298796E09B878C87D6985A8349836B
:100260003C832B8397E09D838E83D798139A149AAF
:10027000159A80918B00826880938B0080918B000F
:10028000806280938B0080918B00886080938B00CC
:1002900080918A00886180938A0080918A008360BF
:1002A00080938A0087E893E1909381008093800097
:1002B000BC9A83B78E6683BF81B3836081BB88E4B9
:1002C000809370002FEF89EF90E0215080409040A4
:1002D000E1F700C0000083E00E94D0008FE39CE9BA
:1002E0000197F1F700C0000083E00E94D0008FE981
:1002F0009FE00197F1F700C0000083E00E94D0006A
:1003000082E00E94D00088E20E94D00088E00E9433
:10031000D00081E00E94D00086E00E94D0008CE0F6
:100320000E94D000809150018860809350010E940B
:10033000670080E80E94D00080E091E00E94B70052
:100340000CED10E090EAA92EB12C2DE7E22EF12C55
:100350003CE2832E992493944CE6C42E42E0D42EA2
:1003600084E0782E66246A94CE0143960E94D700DA
:10037000813069F480EC0E94D0008DE091E00E9411
:10038000B70011BE7BBA1093870000938600CE01A0
:100390000D960E94D700813069F480EC0E94D00055
:1003A0008EE191E00E94B70011BE1BBA1093870046
:1003B00000938600CE0107960E94D700813081F518
:1003C00080EC0E94D00080E391E00E94B70061BE03
:1003D00082E08BBBB0928700A0928600F0928500ED
:1003E000E0928400F0928300E09282009FEF29E681
:1003F00088E1915020408040E1F700C00000CE012C
:1004000001960E94D7008130F1F480EC0E94D00068
:100410008FE391E00E94B7008BB389608BBB11BE64
:10042000CE0101960E94D700813009F09DCF80EC6B
:100430000E94D0008FE391E00E94B7008BB38960E7
:100440008BBB11BE8DCFCE010D960E94D70081309F
:1004500069F480EC0E94D0008EE191E00E94B70028
:100460001BBA1093870000938600D9CF9092870023
:1004700080928600D0928500C0928400D092830042
:10048000C09282009FEF29E688E191502040804091
:10049000E1F700C00000CE0101960E94D700813034
:1004A00009F4B3CFCE010D960E94D700813009F038
:0804B00091CFCFCFF894FFCFEC
:1004B800444F52415A4F20524F424F5400504F57C9
:1004C8004552204F4E202020202020202000504F31
:1004D800574552204F46462020202020202020002B
:1004E80053656375726974792053544152540053AB
:1004F800656375726974792053544F502020000049
:00000001FF
