:100000000C9446000C9465000C9465000C946500FB
:100010000C941D010C9465000C9465000C94650013
:100020000C9465000C9465000C9465000C946500BC
:100030000C9465000C9465000C9465000C946500AC
:100040000C9465000C9465000C9465000C9465009C
:100050000C9465000C9465000C9465000C9465008C
:100060000C9465000C9459010C9465000C94650087
:100070000C9465000C9465000C9465000C9465006C
:100080000C9465000C9465000C94650011241FBE4F
:10009000CFEFD0E1DEBFCDBF11E0A0E0B1E0E8E8F6
:1000A000F6E000E00BBF02C007900D92A036B1074A
:1000B000D9F721E0A0E6B1E001C01D92A736B20752
:1000C000E1F70E948B010C9442030C94000094EA27
:1000D000909374009091740097FFFCCF9EE49093EE
:1000E000730094E8909374009091740097FFFCCF94
:1000F0008093730084E8809374008091740087FF7C
:10010000FCCF84E9809374000895209163013091BD
:1001100064018091650190916601281B390B220FC3
:10012000331F220F331FA2E2B0E00E94330320ED01
:1001300037E040E050E00E941103C9010895CF93D9
:10014000C0916001CB7F8C2F0E9467008C2F846050
:100150000E946700C09360018C2F0E9467008FEFA0
:1001600098E10197F1F700C00000CF910895CF9377
:10017000DF93C82F909160019F70807F982B9093A0
:1001800060010E949F00809160018F7090E1C99F83
:10019000E00111248C2B80936001DF91CF910C94AE
:1001A0009F000F931F93CF938C01C0E0F801EC0FD9
:1001B000F11D8081811104C0CF911F910F9108958D
:1001C000909160019D7F9160909360010E94B700C3
:1001D000CF5FECCF909160019C7F909360010C9475
:1001E000B700FC01A281B3819C918581448121E00B
:1001F00030E001C0220F4A95EAF7922369F481307A
:10020000D1F42FEF30E792E0215030409040E1F7F9
:1002100000C000001582089581110DC02FEF30E756
:1002200082E0215030408040E1F700C0000081E0D2
:10023000858382E0089580E008951F920F920FB6A3
:100240000F9211242F933F938F939F93839B19C0F9
:100250008CB59DB5909366018093650180916A008D
:100260008F7B80936A0080916A00806880936A0027
:100270009F918F913F912F910F900FBE0F901F90E4
:1002800018958CB59DB5909364018093630180911E
:100290006301909164012091650130916601821B98
:1002A000930B909362018093610180916A00806C4E
:1002B000DDCF1F920F920FB60F9211248F939F9351
:1002C000809100018823B1F080918000909181009D
:1002D000909366018093650180918A008F7B809363
:1002E0008A00109200019F918F910F900FBE0F9086
:1002F0001F901895809180009091810090936401E7
:100300008093630180918A00806480938A0081E0F9
:1003100080930001E8CFCF93DF93CDB7DEB7689726
:100320000FB6F894DEBF0FBECDBF1BBA4AE350E054
:100330005C8B4B8B29E330E03E8B2D8B84E08F8BE5
:1003400081E0888FD4985E874D87388B2F8795E022
:10035000998B8A8BD59858874F833A87298796E05F
:100360009B878C87D6985A8349833C832B8397E05D
:100370009D838E83D798139A149A159A80918B0037
:10038000826880938B0080918B00806280938B00C9
:1003900080918B00886080938B0080918A008861B7
:1003A00080938A0080918A00836080938A0087E826
:1003B00093E19093810080938000BC9A83B78E660E
:1003C00083BF81B3836081BB88E4809370002FEF8B
:1003D00089EF90E0215080409040E1F700C000009C
:1003E00083E00E94EA008FE39CE90197F1F700C0E7
:1003F000000083E00E94EA008FE99FE00197F1F797
:1004000000C0000083E00E94EA0082E00E94EA004F
:1004100088E20E94EA0088E00E94EA0081E00E94EF
:10042000EA0086E00E94EA008CE00E94EA008091E7
:1004300060018860809360010E94670080E80E94EC
:10044000EA0081E091E00E94D1008E9A1798809195
:100450008A00836480938A0080917D00806280930B
:100460007D000CED10E090EA692E712C2DE7E22E54
:10047000F12C35E8A32E30E0B32E4CE2842E9924E3
:1004800093945CE6C52E52E0D52E84E0582ECE0122
:1004900043960E94F100813071F480EC0E94EA00E2
:1004A0008EE091E00E94D10011BE5ABA5BBA10935F
:1004B000870000938600CE010D960E94F1008130E6
:1004C00069F480EC0E94EA008FE191E00E94D10083
:1004D00011BE1BBA1093870000938600CE010796C9
:1004E0000E94F100813009F03FC080EC0E94EA00D8
:1004F00081E391E00E94D1008FEF81BF82E08ABB4F
:100500008BBB1DBC1CBC969895E09A95F1F700003A
:10051000969A25E32A95F1F7000096980E948500A7
:100520007092870060928600F0928500E0928400CD
:10053000F0928300E09282008FEF99E628E18150EB
:1005400090402040E1F700C0000084E1A816B1040B
:1005500000F580EC0E94EA0080E491E00E94D10066
:1005600081E08ABB8BBB11BECE0101960E94F100D7
:10057000813009F08CCF80EC0E94EA008FE491E09A
:100580000E94D10085E08ABB8BB385608BBB11BE16
:100590007CCFCE0101960E94F100813061F480ECA5
:1005A0000E94EA008FE491E00E94D10085E08ABBBE
:1005B0008BB38560D7CFCE010D960E94F1008130BC
:1005C00069F480EC0E94EA008FE191E00E94D10082
:1005D0001BBA1093870000938600C5CF90928700C6
:1005E00080928600D0928500C0928400D0928300D1
:1005F000C09282009FEF29E688E191502040804020
:10060000E1F700C00000CE0101960E94F1008130A8
:1006100031F2CE010D960E94F100813009F071CFC8
:10062000D0CFA1E21A2EAA1BBB1BFD010DC0AA1F31
:10063000BB1FEE1FFF1FA217B307E407F50720F04B
:10064000A21BB30BE40BF50B661F771F881F991FC6
:100650001A9469F760957095809590959B01AC010F
:10066000BD01CF010895A29FB001B39FC001A39F18
:10067000700D811D1124911DB29F700D811D1124DB
:08068000911D0895F894FFCFCD
:1006880001444F52415A4F20524F424F5400504F4D
:10069800574552204F4E2020202020202020005057
:1006A8004F574552204F464620202020202020200A
:1006B800005365637572697479205354415254002C
:1006C800414E45524D592020202020202020005303
:1006D800656375726974792053544F502020000067
:00000001FF
